:020000040000FA
:100000000C9445030C9476030C9476030C947603BD
:100010000C9476030C9476030C9476030C9476037C
:100020000C9476030C9476030C9476030C9476036C
:100030000C9476030C948D110C9476030C94760337
:100040000C9476030C94BD130C9476030C947603F5
:100050000C9476030C9476030C9476030C94E912BA
:100060000C9476030C94BF120C9495120C947603A6
:100070000C9476030C9476030C9476030C9476031C
:100080000C948F130C9476030C9476030C947603E3
:100090000C946B120C9441120C9476030C9476031E
:1000A0000C9476030C9476030C9461130C947603F1
:1000B0000C9476030C9476030C9476030C9433130F
:1000C0000C9476030C9476030C9476030C9417121C
:1000D0000C94ED110C9476030C9476030C94760337
:1000E0000C9476030C94F80C0C94EA050C940B1108
:1000F0000C9463040C94C1050C94F4050C94CE0587
:100100000C94D50C0C941B040C94200D0C944805F5
:100110000C948E0C0C94BD050C941C040C94B50529
:100120000C94AF050C94EE0C0C94C4050C94720462
:100130000C9430140C94C10C0C94D4050C94D80578
:100140000C94020D0C94E6050C94160D0C94930C73
:100150000C94860C0C94DC050C94F0050C94EF05C3
:100160000C94B9050C94CB0C0C9486040C949D0C47
:100170000C941D040C9494040C94DF0C0C94E00477
:100180000C940C0D0C94E2050C94B90C0C94B10C6D
:100190000C9476080C9480080C94CA050C94A70C57
:1001A0005D2000626C6E6B696E6600766572003170
:1001B0002E302E3100682D62656174003435006286
:1001C0007566662D696E00313032340064657600E4
:1001D00041726475696E6F204D656761006370756B
:1001E0000041546D6567613235363000636F6E00D3
:1001F00053747265616D0066772D74797065005473
:100200004D504C6F35317349316131006275696C05
:1002100064004D6179203135203230323220303067
:100220003A30343A33320000000000210024002725
:10023000002A002D003000330001010000040107F6
:10024000010A010D0A202020205F5F5F20205F5FF0
:10025000202020202020202020205F5F0D0A202049
:10026000202F205F20292F202F5F205F5F5F5F5F9F
:1002700020202F202F5F5F0D0A20202F205F2020BD
:100280002F202F202F2F202F205F205C2F20202792
:100290005F2F0D0A202F5F5F5F5F2F5F2F5C5F2C4A
:1002A000202F5F2F2F5F2F5F2F5C5F5C0D0A2020B8
:1002B0002020202020202F5F5F5F2F2076312E30DE
:1002C0002E31206F6E2041726475696E6F204D650E
:1002D00067610D0A0000002200250028002B002E77
:1002E000003100340002010000050108010B010289
:1002F000436F6E6E656374696E672E2E2E006D738C
:10030000292E005265616479202870696E673A2051
:1003100000000020002300260029002C002F0032BE
:10032000000001000003010601090105050505079C
:100330000508080808020202020A0A080804040460
:10034000040101010101010101030303030303038C
:1003500003040707070C0C0C0C0C0C0C0C0202021B
:100360000206060606060606060B0B0B0B0B0B0B0E
:100370000B010210202008081020401020408002AD
:1003800001020108040201010204081020408080DB
:10039000402010080402018004020180402010085F
:1003A0000402010804020101020408102040800137
:1003B0000204081020408000000A0B02090C0D0EF8
:1003C0000807030401000000000000000000000016
:1003D000000000000000000000000000000000001D
:1003E00000000012111000000000000000000000DA
:1003F000000000000000000000000000001C041CC1
:10040000041C041C041C041C041C041C041C041CEC
:10041000041C041C041C041C041C041C041C041CDC
:10042000041C041C041C041C041C041C041C041CCC
:10043000041C041C041C041C041C041C041C041CBC
:10044000041C041C041C041C041C041C041C041CAC
:10045000041C041C041C041C041C041C041C041C9C
:10046000041C041C041C041C041C041C041C041C8C
:10047000041C041C041C041C041C041C041C041C7C
:10048000041C041C041C041C041C041C041C041C6C
:10049000041C041C041C041C041C041C041C041C5C
:1004A000041C041C041C041C041C041C041C041C4C
:1004B000041C041C041C041C041C041C041C041C3C
:1004C000041C041C041C041C041C041C041C041C2C
:1004D000041C041C041C041C041C041C041C041C1C
:1004E000041C041C041C041C041C041C041C041C0C
:1004F000041C041C041C041C041C041C0480081B95
:100500000476081B041B041B041B041B041B041B94
:10051000041B041B041B041B041B041B041B041BE3
:10052000041B041B041B041B041B041B041B041BD3
:10053000041B041B041B041B041B041B041B041BC3
:10054000041B041B041B041B041B041B041B041BB3
:10055000041B041B041B041B041B041B041B041BA3
:10056000041B041B041B041B041B041B041B041B93
:10057000041B041B041B041B041B041B041B041B83
:10058000041B041B041B041B041B041B041B041B73
:10059000041B041B041B041B041B041B041B041B63
:1005A000041B041B041B041B041B041B041B041B53
:1005B000041B041B041B041B041B041B041B041B43
:1005C000041B041B041B041B041B041B041B041B33
:1005D000041B041B041B041B041B041B041B041B23
:1005E000041B041B041B041B041B041B041B041B13
:1005F000041B041B041B041B041B041B04496E7610
:10060000616C696420485720636D643A200053652B
:10061000727665723A200052656469726563746926
:100620006E6720746F2000526561647900506163C9
:100630006B657420746F6F206269673A2000436FA6
:100640006E6E656374206661696C65642E20636FED
:1006500064653A2000496E76616C69642061757446
:100660006820746F6B656E004C6F67696E207469EB
:100670006D656F75740048656172746265617420A0
:1006800074696D656F757400301411241FBECFEF4F
:10069000D1E2DEBFCDBF00E00CBF12E0A0E0B2E0CF
:1006A000EEE5FAE300E00BBF02C007900D92AA3717
:1006B000B107D9F726E0AAE7B2E001C01D92A93739
:1006C000B207E1F713E0C5E4D3E000E006C02197EC
:1006D0000109802FFE010E94041DC434D10780E06F
:1006E0000807A9F70E9445150C942D1D0C940000D5
:1006F000FC01A089B18982E08C93A485B5851C9208
:10070000A685B7858FEC8C93108EA489B58986E079
:100710008C93A289B3898C9180618C93A289B389CF
:100720008C9188608C93A289B3898C9180688C931A
:100730000288F389E02D80818F7D80830895CF9298
:10074000DF92EF92FF92DC01A03282E0B807D4F58D
:10075000A53BB10514F0A4EBB0E04091570628E8A2
:1007600030E0241B310947FD3395220F331F220F40
:10077000331F6901330FEE08FF084091580628E542
:1007800032E0241B310947FD3395220F331F220F1E
:10079000331F032E000C440B550B2C193D094E0939
:1007A0005F09B7FF02C0B0E0A0E00E947E1B24EB0F
:1007B00030E040E050E00E94541BC20ED31EE41E05
:1007C000F51ED601E0915606E03380F520915706DC
:1007D00088E890E0821B910927FD9395880F991F67
:1007E000880F991FA817B90784F02091580688E54B
:1007F00092E0821B910927FD9395880F991F880F1E
:10080000991FA817B9070CF4CD010297880F991FFB
:100810004FB7F8942E2F30E0F901EE0FFF1FE20FD3
:10082000F31FED57FB4F928381834FBFFF90EF90F3
:10083000DF90CF90089508950895AF92BF92CF9220
:10084000DF92EF92FF920F931F93CF93DF936C0190
:100850007B018B01040F151FEB015E01AE18BF0871
:10086000C017D10759F06991D601ED91FC91019023
:10087000F081E02DC6011995892B79F7C501DF912B
:10088000CF911F910F91FF90EF90DF90CF90BF908D
:10089000AF900895FC01A089B1898C91A689B78990
:1008A00082FD0FC09C91818D8F5F8F73228D821787
:1008B00049F0A18DAE0FBF2FB11D5D969C93818F26
:1008C00008958C910895FC01538D448D252F30E0BF
:1008D000842F90E0821B930B541710F0CF9608954D
:1008E00001970895FC01918D828D981761F0A28D7A
:1008F000AE0FBF2FB11D5D968C91928D9F5F9F7340
:10090000928F90E008958FEF9FEF0895FC01918DF5
:10091000828D981731F0828DE80FF11D858D90E062
:1009200008958FEF9FEF0895FC01918D228D892FFF
:1009300090E0805C9F4F821B91098F7399270895E7
:100940008CEA92E00E94940421E0892B09F420E0D3
:10095000822F089589E493E00E94940421E0892B7A
:1009600009F420E0822F089586EE93E00E9494041B
:1009700021E0892B09F420E0822F0895FC01A48D49
:10098000A80FB92FB11DA35ABF4F2C91848D90E0B1
:1009900001968F739927848FA689B7892C93A08994
:1009A000B1898C91837080648C93938D848D98131E
:1009B00006C00288F389E02D80818F7D80830895B1
:1009C000EF92FF920F931F93CF93DF93EC0181E09F
:1009D000888F9B8D8C8D98131AC0E889F989808146
:1009E00085FF15C09FB7F894EE89FF896083E88979
:1009F000F98980818370806480839FBF81E090E06B
:100A0000DF91CF911F910F91FF90EF900895F62EF7
:100A10000B8D10E00F5F1F4F0F731127E02E8C8D91
:100A20008E110CC00FB607FCFACFE889F9898081D6
:100A300085FFF5CFCE010E94BE04F1CFEB8DEC0F08
:100A4000FD2FF11DE35AFF4FF0829FB7F8940B8FF3
:100A5000EA89FB8980818062CFCF0F931F93CF9368
:100A6000DF938C01D0E0C0E0F801EC0FFD1F649132
:100A7000662341F089E493E00E94E004892B11F0A1
:100A80002196F2CFCE01DF91CF911F910F91089562
:100A9000CF93DF93EC01888D8823B9F0AA89BB89B5
:100AA000E889F9898C9185FD03C0808186FD0DC0A0
:100AB0000FB607FCF7CF8C9185FFF2CF808185FFC1
:100AC000EDCFCE010E94BE04E9CFDF91CF91089512
:100AD00080E090E0892B29F00E94B40481110E94EB
:100AE000000080E090E0892B29F00E94AA04811187
:100AF0000E94000080E090E0892B29F00E94A00471
:100B000081110E94000080E090E0892B49F080E094
:100B100090E0892B29F00E94000081110C940000C4
:100B200008958150823108F05AC0E82FF0E08827FC
:100B3000E356FA4F8F4F0C94041DBD05C105AF0558
:100B4000B505B905EF05C405CA05CE05D405D80518
:100B5000DC05E205E605EF05EA05F005F405809100
:100B600080008F77809380000895809180008F7D32
:100B7000F9CF80918000877FF5CF84B58F7784BDD2
:100B8000089584B58F7DFBCF8091B0008F778093DF
:100B9000B00008958091B0008F7DF9CF80919000D2
:100BA0008F77809390000895809190008F7DF9CF8A
:100BB00080919000877FF5CF8091A0008F77809300
:100BC000A00008958091A0008F7DF9CF8091A000B2
:100BD000877FF5CF809120018F7780932001089542
:100BE000809120018F7DF9CF80912001877FF5CF03
:100BF0001F93CF93DF93282F30E0F901E954FC4F86
:100C00008491F901EF58FC4FD491F901E55DFC4F57
:100C1000C491CC23A9F0162F81110E949105EC2FCD
:100C2000F0E0EE0FFF1FEB52FD4FA591B4918FB78F
:100C3000F894EC91111108C0D095DE23DC938FBF9E
:100C4000DF91CF911F910895DE2BF8CF9091210273
:100C500089130DC0EFEEF2E0E4919FEF9093210233
:100C6000E230E1F038F4EE2381F0E13089F060E029
:100C70000C94F805E43049F110F1E530C1F790919A
:100C800073009D7F90937300F2CF10926E00EFCFB0
:100C900090916F009D7F90936F00E9CF90917000CD
:100CA0009D7F9093700091E09093B0009091B1007F
:100CB000987F94609093B1001092B300D8CF909138
:100CC00071009D7F90937100D2CF909172009D7FB3
:100CD00090937200CCCFCF93DF9390E0FC01EF585C
:100CE000FC4F2491855D9C4FFC0184918823C9F0C1
:100CF00090E0880F991FFC01E75DFD4FA591B4912D
:100D0000FC01EB52FD4FC591D49161110DC09FB70D
:100D1000F8948C91209582238C93888128232883B2
:100D20009FBFDF91CF910895623051F49FB7F8943F
:100D30003C91822F809583238C93E8812E2BEFCFDB
:100D40008FB7F894EC912E2B2C938FBFEACF3FB73F
:100D5000F8948091870290918802A0918902B091C5
:100D60008A0226B5A89B05C02F3F19F00196A11D48
:100D7000B11D3FBFBA2FA92F982F8827BC01CD01E5
:100D8000620F711D811D911D42E0660F771F881F44
:100D9000991F4A95D1F708950C94A7062FB7F89498
:100DA0006091830270918402809185029091860205
:100DB0002FBF0895AF92BF92CF92DF92EF92FF9232
:100DC0000F931F93CF93DF936B017A01EC01C2580D
:100DD000DD4F28813CE0389F8001399F100D1124A0
:100DE000A0901305B12C27FF1FC0FB0111821082B8
:100DF00088818F5F888388819801280F311D87FD46
:100E00003A95F6012A153B051CF488818C30C4F113
:100E100080819181049680349C4908F473C0F60166
:100E200080819181049670C088819801280F311DBE
:100E300087FD3A952A153B05DCF68881A801480F05
:100E4000511D87FD5A95FA01EE0FFF1FE40FF51FA4
:100E5000ED57FB4F808186FFCBCF8881F801E80FEB
:100E6000F11D87FDFA95CF01EE0FFF1FE80FF91F67
:100E7000ED57FB4F808160E08F730E94F805B8CF7B
:100E8000808191812881A801420F511D27FD5A952B
:100E90009A01FA01EE0FFF1FE20FF31FED57FB4F10
:100EA00021813281820F931FF70191838083888192
:100EB0009801280F311D87FD3A95F901EE0FFF1FAC
:100EC000E20FF31FED57FB4F808186FF22C0888120
:100ED000080F111D87FD1A95F801EE0FFF1FE00F97
:100EE000F11FED57FB4F808161E08F73DF91CF9150
:100EF0001F910F91FF90EF90DF90CF90BF90AF9038
:100F00000C94F80580E49CE9F701918380838FEFCE
:100F10008883DF91CF911F910F91FF90EF90DF9029
:100F2000CF90BF90AF9008958F929F92AF92BF9253
:100F3000CF92DF92EF92FF920F931F93CF93DF93A5
:100F40006C017B018B01040F151F0E94CE064B0123
:100F50005C01E701C017D107C8F40E94CE066819EA
:100F600079098A099B09603777418105910570F4F9
:100F7000D6018D919C91DC01ED91FC910284F38569
:100F8000E02D199597FDE6CF8993E4CFCE018E1918
:100F90009F09DF91CF911F910F91FF90EF90DF900C
:100FA000CF90BF90AF909F908F900895FC010190DB
:100FB0000020E9F73197AF01481B590BBC0189E4C8
:100FC00093E00C941D048F929F92AF92BF920F9367
:100FD0001F93CF93DF93CDB7DEB7A1970FB6F894E9
:100FE000DEBF0FBECDBF19A2423008F44AE08E0129
:100FF0000F5D1F4F842E912CB12CA12CA5019401C3
:101000000E94861BE62FB901CA01EA30F4F4E05DC4
:10101000D801EE938D01232B242B252B79F790E01B
:1010200080E0109719F0CD010E94D607A1960FB667
:10103000F894DEBF0FBECDBFDF91CF911F910F910E
:10104000BF90AF909F908F900895E95CE1CFCF93D0
:10105000DF930E942D05EC018AE392E00E94D607FF
:101060008C0F9D1FDF91CF910895CF93DF930E9446
:10107000D607EC018AE392E00E94D6078C0F9D1FF1
:10108000DF91CF910895DC01ED91FC91119730979C
:1010900061F012962D913C911397E217F30728F413
:1010A00001900020E9F7ED93FC930895CF93DF932F
:1010B000BC0190E080E04AE00E94E307EC018AE393
:1010C00092E00E94D6078C0F9D1FDF91CF9108956B
:1010D0006BE589E493E00E94E0040E94CE064AE0BA
:1010E0000E94E30780EA91E00C942D05FB018081CA
:1010F00091810E94B41A019711F41092AB020895E5
:10110000FB01808191810E94B41A0C949F03FC0121
:1011100080819181009739F0228133818217930772
:1011200010F40C94B41A90E080E008950F931F938C
:10113000CF93DF93EC01FB0101900020E9F78F01D1
:10114000061B170B8A819B81A801480F591F2C8110
:101150003D812417350768F028813981A801820F65
:10116000931F0E940C1D4A815B81400F511F5B83BE
:101170004A83DF91CF911F910F9108950F931F9391
:10118000CF93DF93CDB7DEB762970FB6F894DEBF8B
:101190000FBECDBF8C01CB014AE0BE016F5F7F4F18
:1011A0000E94021BBE016F5F7F4FC8010E9496081C
:1011B00062960FB6F894DEBF0FBECDBFDF91CF9120
:1011C0001F910F9108953F924F925F926F927F927D
:1011D0008F929F92AF92BF92CF92DF92EF92FF9247
:1011E0000F931F93CF93DF93CDB7DEB7A3970FB6BF
:1011F000F894DEBF0FBECDBF5C012DB73EB73BA359
:101200002AA30E94CC06D50157968D919C915897A0
:10121000912C029709F499C456968C9156978F5F3A
:1012200056968C93569754962D913C915597232B17
:1012300019F09924939482C48330D8F7ED91FC91EE
:101240008281882309F45FC4FE0131963F0150E199
:10125000452E512CD501ED91FC9180819181DC01CD
:10126000ED91FC910084F185E02D19951816190671
:101270000CF049C445E050E0BE01695E7F4FF501C6
:10128000808191810E949407009721F3059709F0CE
:101290006EC0888D998D982789279827998F888F78
:1012A0000A8D1B8D1027012710271B8F0A8F892B72
:1012B00009F45DC08F8981116FC00E94CE06D501EF
:1012C00016966D937D938D939C93199757962D91B8
:1012D0003C918A8D9B8D232B09F05AC0288D398D26
:1012E0002130310509F054C08930910599F1883CCD
:1012F000910519F0049709F040C00E94680883E046
:1013000093E00E942D05F5016681778180859185A6
:101310000685178520893189601B710B820B930B21
:101320004AE00E94E3078EEF92E00E942708F50151
:1013300086819781A085B18586879787A08BB18BA1
:1013400021E030E0308F278BC5010E94D70F0E942B
:10135000CC0680CF0E94680885E596E00E942708A9
:1013600083E090E0D50158969C938E935797D501D2
:10137000ED91FC911282912CE1C30E9468088EE3EA
:1013800096E00E942D058A8D9B8D0E945608EFCF16
:10139000059709F05FCFEBCF0130B4E01B0790F069
:1013A0000E9468088DE296E00E942D058A8D9B8D33
:1013B0000E945608F501108E178A0190F081E02DE9
:1013C000128248CF8DB69EB6C80101962DB73EB7A2
:1013D000281B390B0FB6F8943EBF0FBE2DBF4DB77B
:1013E0005EB74F5F5F4F7A01A801B701D5018D91BC
:1013F0009C910E9494078017910709F078C0EA8DAC
:10140000FB8DEE0DFF1D10820E94CE06F501668356
:101410007783808791878F89813109F45FC388F54D
:101420008630D9F08F3009F4C8C0823081F5D501FB
:1014300057968D919C91892B81F40E94680887E2D0
:1014400096E00E94270821E030E0F501308F278BDD
:10145000C5010E94D70F0E94CC06488D598DD12C12
:10146000C12CF12CE12C08EC10E030E020E060E031
:10147000C5010E94B00E0FB6F8949EBE0FBE8DBE81
:10148000E9CE8D31A1F258F4843109F496C0F5010A
:10149000108E178A0190F081E02D1282ECCF8932F4
:1014A00081F08733A1F78A8D9B8D892B21F30E94D0
:1014B00068088EE096E00E942D05C7010E9435085D
:1014C000DACF84819581892B39F480E490E00E9401
:1014D0008F19F501958384830A8D1B8D0E0D1F1DB9
:1014E000FA82E9821C830B83E016F10630F00FB616
:1014F000F8949EBE0FBE8DBE3ACF40E450E0B701D7
:10150000D50114968D919C910E941E1DD5011496B3
:10151000ED91FC9117AEC3010E944308FC0180814C
:1015200091818017910708F045C089819A810097C1
:10153000E9F12B813C8182179307C0F50E94D21AF2
:101540008B010E94680887E196E00E942D05D50175
:1015500014968D919C91009711F00E94D6076AE332
:1015600089E493E00E94E004C8010E945608D50176
:10157000ED91FC911197128258961C921E925797EA
:101580000E94CE06DC01CB0188589341A109B10924
:10159000F50182879387A487B58786839783A08781
:1015A000B18786879787A08BB18B65CF60E070E0AD
:1015B000CB01C6CF00E510E0C4CF888D998DD50151
:1015C00055969C938E935497EA8DFB8DF9A3E8A3CF
:1015D0006F01CE0CDF1CFD8EEC8EDF8ECE8EEC14F8
:1015E000FD0408F097C1D7010D911C91CE014C96D6
:1015F0000E944308FC01808191818C159D0508F0B3
:1016000089C18C8D9D8DDC012C91213409F065C040
:1016100001960E94B41A46E3342E380E40970CF41B
:1016200061C00637B2E71B0709F40FC208F087C391
:101630000136F2E71F0709F46DC3043622E71207EB
:1016400009F060C033243A947A8A698A1C8A1B8A1A
:101650005E8A4D8A6BE472E0CE0141960E94960844
:10166000032D10E0B801CE0141960E94BE08F8019A
:10167000E954FC4F8491F801EF58FC4FF490055D5C
:101680001C4FF801049160E070E0002389F08111A3
:101690000E949105E02FF0E0EE0FFF1FEF5EFC4F80
:1016A000A591B491EC91FE2261E070E009F460E054
:1016B000CE0141960E94BE080B891C890150110978
:1016C00029893A89D12CC12CF12CE12C50E040E041
:1016D00064E1C5010E94B00E1DC1CE014C960E946E
:1016E0008708382E0637B2E71B0709F4B0C128F582
:1016F0000136F2E71F0709F4B3C0043622E71207E8
:1017000009F4A2CF00371D4609F46FC00E94680893
:101710008DEF95E00E942D05C7010E943508D50187
:1017200054964D915C91D12CC12CF12CE12C02E00E
:1017300010E030E020E060E0CCCF043647E714074B
:1017400009F473C0063757E7150709F49AC1013643
:101750001747E1F6CE014C960E944308DC018D91BB
:101760009C918C159D0508F0D5C061E0832D0E94E9
:101770006B06CE014C960E9487088C0161E0832D98
:101780000E946B060115110509F465C00F3F110594
:1017900009F09AC061E060C0CE014C960E948708B3
:1017A000F82ECE014C960E9443080C8D1D8D6DE3E2
:1017B00072E0C8010E94151D60E0892B79F060E499
:1017C00072E0C8010E94151D892B39F064E472E0B3
:1017D000C8010E94151D892BE9F461E08F2D0E943C
:1017E0006B06CE014C960E9443088C8D9D8D8C1506
:1017F0009D0508F08FC0DC012C91213469F601961B
:101800000E94B41A36E3F32EF80E409754F2FF24E8
:10181000FA94C7CF68E472E0C8010E94151D892BB5
:1018200001F762E0DBCF33243A94CE014C960E945C
:101830004308DC018D919C918C159D0508F06AC0D0
:1018400061E0832D0E946B06CE014C960E948708B2
:1018500061E0892B09F460E0832D0E94F8055AC0ED
:101860007A8A698A1C8A1B8A5E8A4D8A6EE472E0D3
:10187000CE0141960E949608632D70E0CE014196FC
:101880000E94BE08B5E3B31510F4EAEC3E0E909149
:101890007B00832D8870977F892B80937B00832D1D
:1018A0008770806480937C0080917A00806480934C
:1018B0007A0080917A0086FDFCCF8091780060915B
:1018C0007900762F682FF4CEE32DF0E0E954FC4F39
:1018D000E491E150E23108F0B3C0F0E08827EC5821
:1018E000F34F8F4F0C94041D860C8E0C930C9D0CA3
:1018F000A70C200DB10CB90CC10CCB0CD50CDF0C16
:10190000EE0CF80C200D020D0C0D160D84B5806840
:1019100084BD07BDF501158A148AADCD84B58062FA
:1019200084BD08BDF7CF80918000806880938000DF
:101930001093890000938800EDCF80918000806231
:101940008093800010938B0000938A00E3CF8091F6
:10195000800088608093800010938D0000938C003D
:10196000D9CF8091B00080688093B0000093B3001D
:10197000D1CF8091B00080628093B0000093B4001A
:10198000C9CF809190008068809390001093990057
:1019900000939800BFCF8091900080628093900068
:1019A00010939B0000939A00B5CF809190008860BF
:1019B0008093900010939D0000939C00ABCF80918A
:1019C000A00080688093A0008091A0008F7B80930E
:1019D000A0001093A9000093A8009CCF8091A000C4
:1019E00080628093A0001093AB000093AA0092CF76
:1019F0008091A00088608093A0001093AD000093B8
:101A0000AC0088CF809120018068809320011093E2
:101A10002901009328017ECF80912001806280936C
:101A2000200110932B0100932A0174CF8091200193
:101A300088608093200110932D0100932C016ACFC0
:101A4000003811050CF0A6CE06CF33243A94398223
:101A500037FC60CFE32DF0E0EE0FFF1FE350FC4FAB
:101A6000259134912115310509F454CFB4E02C317E
:101A70003B0709F44FCFC301F90119954BCF33242C
:101A80003A94CE014C960E9443082C8D3D8DC9019D
:101A90008E199F0948A159A1481B590B3A832983E4
:101AA0005C834B835E834D83398A37FC33CFE32DD0
:101AB000F0E0EE0FFF1FE350FB4F2591349121150D
:101AC000310509F427CF54E02B31350709F422CF33
:101AD000B301CE014196F90119951CCF8A8D9B8DDA
:101AE0008E0D9F1DFA82E9829C838B83E816F9068E
:101AF00008F0C1CCC3010E944308D50155961C9241
:101B00001E925497B8CC0E94CE062B013C01F501E1
:101B100000811181D80112969C9012978789908D2F
:101B20008130910509F090C091102FC046865786EC
:101B3000608A718A108E178A12961C92D501569669
:101B40008C915697815056968C93892DAAA1BBA152
:101B50000FB6F894BEBF0FBEADBFA3960FB6F894F4
:101B6000DEBF0FBECDBFDF91CF911F910F91FF90D0
:101B7000EF90DF90CF90BF90AF909F908F907F902D
:101B80006F905F904F903F90089586819781A085D8
:101B9000B185A3019201281B390B4A0B5B0BDA01BB
:101BA000C901893136EF9307A105B10560F00E94A4
:101BB000680886E796E00E942708D50158961C928F
:101BC0001E925797D5CB893C9F4AA105B10598F441
:101BD000F50182859385A485B585A3019201281B13
:101BE000390B4A0B5B0BDA01C901893C9F4AA105FD
:101BF000B10508F41ECBF50186859785A089B189CA
:101C0000A3019201281B390B4A0B5B0BDA01C901B6
:101C100081379741A105B10508F40BCBD12CC12C1C
:101C2000F12CE12C10E000E030E020E050E040E05A
:101C300066E0C5010E94B00ED5011E964D925D92E0
:101C40006D927C9251977ACF892B09F0F2CA8685E2
:101C50009785A089B189481A590A6A0A7B0A99208E
:101C6000C1F0F1E74F16F7E15F066104710408F473
:101C7000E0CA0E94680888E696E00E942708D5011D
:101C8000ED91FC911197128258961C921E925797D3
:101C900072CBB9E84B16B3E15B066104710408F43A
:101CA000C8CA0E94680880EF92E00E942708F801E5
:101CB00080819181DC01ED91FC910680F781E02D1E
:101CC000199581E0F801828381E090E0D501539677
:101CD0009C938E93529712962D913C91F90101900D
:101CE0000020E9F731978F01021B130BD12CC12C77
:101CF000F12CE12C41E050E06DE1C5010E94B00EF5
:101D0000F50182859385A485B58586879787A08B05
:101D1000B18B8FCA7A8A698A1C8A1B8A5E8A4D8A2D
:101D20006EE472E0CE0141960E9496086FEF70E07B
:101D3000CE0141960E94BE0833243A94A6CD0436C3
:101D400047E7140709F46FCD063757E7150709F47D
:101D500096CE0136174709F0D9CC33243A94FACC01
:101D60002F923F924F925F926F927F928F929F92AB
:101D7000AF92BF92CF92DF92EF92FF920F931F9399
:101D8000CF93DF9300D000D0CDB7DEB75C016E8378
:101D90004A013901DC01ED91FC918281882309F42B
:101DA000C9C0862F8D7F09F4FDC0663009F4FAC0E2
:101DB0006D3109F4F7C0F5018789908D019709F01D
:101DC000B9C0452BB9F4D50154968D909C90559788
:101DD0008114910479F452968D919C9153970196B8
:101DE00009F4C1C053969C938E935297D501529695
:101DF0008D909C908E818C50893090F5F501828574
:101E00009385A485B585468157816085718548177E
:101E100059076A077B0710F4AC01BD011A012B01B9
:101E2000F2E42F0E311C411C511C0E94CE06A2016F
:101E30009101261B370B480B590BDA01C901B7FD7D
:101E400098C0C5010E94E3080E94CE06A20191013C
:101E5000261B370B480B590BDA01C901B7FFF1CF2D
:101E6000C80105966114710411F485E090E0512CCD
:101E7000412CE114F10409F02601480E591EBE81DF
:101E8000B9839824892498249B828A82C8018C0D66
:101E90009D1D9827892798279D838C83D501ED91D7
:101EA000FC9180819181DC01ED91FC910280F381B4
:101EB000E02D45E050E0BE016F5F7F4F19950E9415
:101EC000CC06BE81BB2309F460C00115110509F4DD
:101ED00059C0D501ED91FC9180819181DC01ED919A
:101EE000FC910280F381E02DA801B30119950B5FED
:101EF0001F4F0E94CC06C114D10491F0D501ED9181
:101F0000FC9180819181DC01ED91FC910280F38153
:101F1000E02DA601B70119950C0D1D1D0E94CC06E0
:101F200004151505A9F1F501108E178A0190F081AD
:101F3000E02D128226960FB6F894DEBF0FBECDBFFD
:101F4000DF91CF911F910F91FF90EF90DF90CF9095
:101F5000BF90AF909F908F907F906F905F904F90C9
:101F60003F902F90089581E090E0F501938B828B54
:101F70003DCFD50156968C91811172CFC5010E943B
:101F8000E3086ECF05E010E0B6CF05E010E0C8CF63
:101F90000E94CE06D5011A966D937D938D939C93E6
:101FA0001D97C8CF8114910409F05ACF0CCFAF927E
:101FB000BF92CF92DF92EF92FF920F931F93CF9336
:101FC000DF93CDB7DEB7C25CD1090FB6F894DEBFA0
:101FD0000FBECDBF5C01CE0183589F4FC354DF4F6E
:101FE00099838883CD5BD040C154DF4F198218821A
:101FF000CF5BD04080E490E0CF53DF4F998388835C
:10200000C15CD04061E572E0CE0183549F4F0E94D5
:10201000960866E572E0CE0183549F4F0E949608B1
:102020004CE750E06BEA71E0CE0101960E94F91A8C
:10203000C154DF4FC880D980CF5BD040C354DF4F3D
:10204000E880F980CD5BD0400CE710E09E012F5F67
:102050003F4F50E040E061E1C5010E94B00ECE5319
:10206000DF4F0FB6F894DEBF0FBECDBFDF91CF912B
:102070001F910F91FF90EF90DF90CF90BF90AF90A6
:102080000895CF92DF92EF92FF920F931F93CF9319
:10209000DF93CDB7DEB7C650D4400FB6F894DEBF9D
:1020A0000FBECDBF8C01CE010196CF5FDB4F998370
:1020B0008883C150D440CD5FDB4F19821882C35052
:1020C000D44080E094E0CB5FDB4F99838883C55098
:1020D000D44063E672E0CE018F5F9B4F0E9496086A
:1020E00061E070E0CE018F5F9B4F0E94BE08B80197
:1020F000CE018F5F9B4F0E94BE08CD5FDB4F0881F2
:102100001981C350D44001501109CF5FDB4F2881A2
:102110003981C150D440D12CC12CF12CE12C50E09C
:1021200040E064E189E596E00E94B00ECA5FDB4FB3
:102130000FB6F894DEBF0FBECDBFDF91CF911F91D8
:102140000F91FF90EF90DF90CF900895CF92DF92A4
:10215000EF92FF920F931F93CF93DF93CDB7DEB72C
:10216000C650D4400FB6F894DEBF0FBECDBF8C0171
:10217000CE010196CF5FDB4F99838883C150D44055
:10218000CD5FDB4F19821882C350D44080E094E0C9
:10219000CB5FDB4F99838883C550D44063E672E000
:1021A000CE018F5F9B4F0E94960863E070E0CE01E6
:1021B0008F5F9B4F0E94BE08B801CE018F5F9B4F7F
:1021C0000E949608CD5FDB4F08811981C350D4402F
:1021D00001501109CF5FDB4F28813981C150D440B4
:1021E000D12CC12CF12CE12C50E040E064E189E5D8
:1021F00096E00E94B00ECA5FDB4F0FB6F894DEBFC8
:102200000FBECDBFDF91CF911F910F91FF90EF9047
:10221000DF90CF9008950F931F9360E08DE20E94AE
:10222000F80583E090E00197F1F761E08DE20E940C
:10223000F80583E290E00197F1F760E08DE20E94FB
:10224000F805EFE9F3E06491E9E5F3E0E491F0E00B
:10225000EE0FFF1FEF5EFC4F8591949100E412E4B6
:102260002FE030E0462F0E94EB13611571058105C8
:10227000910529F06F5F7F4F8F4F9F4F9F700E9496
:10228000EF1B26E933E44BE05DE30E94531C20E0A2
:1022900030E040E05FE30E94531C0E94B71B709344
:1022A0007D0260937C02CB010E94411080917A02F2
:1022B00090917B0220917C0230917D020097D9F4AD
:1022C00030937B0220937A0286E692E00E94A61069
:1022D0008091AB02811104C086E692E00E94A610B4
:1022E00080917C0290917D0290937B0280937A0290
:1022F0001F910F910895821B930B97FF03C0919537
:102300008195910905971CF42B3031050CF781E07C
:102310008093AB0289E692E0D9CF1F920F920FB65D
:102320000F9211240BB60F922F933F934F935F930D
:102330006F937F938F939F93AF93BF93EF93FF938D
:1023400080919F029091A002A091A102B091A2025F
:10235000892B8A2B8B2BE1F190918E02E0918F02D9
:10236000F091900280818927808380919F029091D3
:10237000A002A091A102B091A202181619061A0695
:102380001B069CF480919F029091A002A091A10253
:10239000B091A2020197A109B10980939F02909385
:1023A000A002A093A102B093A202FF91EF91BF916E
:1023B000AF919F918F917F916F915F914F913F91DD
:1023C0002F910F900BBE0F900FBE0F901F9018957E
:1023D000809121020E942606E8CF1F920F920FB62D
:1023E0000F9211240BB60F922F933F934F935F934D
:1023F0006F937F938F939F93AF93BF93EF93FF93CD
:102400008CEA92E00E94BE04FF91EF91BF91AF91E0
:102410009F918F917F916F915F914F913F912F91FC
:102420000F900BBE0F900FBE0F901F9018951F922C
:102430000F920FB60F9211240BB60F922F933F936A
:102440004F935F936F937F938F939F93AF93BF93BC
:10245000EF93FF938CEA92E00E944A04FF91EF9180
:10246000BF91AF919F918F917F916F915F914F91AC
:102470003F912F910F900BBE0F900FBE0F901F90AA
:1024800018951F920F920FB60F9211240BB60F9250
:102490002F933F934F935F936F937F938F939F936C
:1024A000AF93BF93EF93FF9389E493E00E94BE0440
:1024B000FF91EF91BF91AF919F918F917F916F911C
:1024C0005F914F913F912F910F900BBE0F900FBED8
:1024D0000F901F9018951F920F920FB60F92112414
:1024E0000BB60F922F933F934F935F936F937F930E
:1024F0008F939F93AF93BF93EF93FF9389E493E000
:102500000E944A04FF91EF91BF91AF919F918F91EB
:102510007F916F915F914F913F912F910F900BBEE3
:102520000F900FBE0F901F9018951F920F920FB62D
:102530000F9211240BB60F922F933F934F935F93FB
:102540006F937F938F939F93AF93BF93EF93FF937B
:1025500086EE93E00E94BE04FF91EF91BF91AF9190
:102560009F918F917F916F915F914F913F912F91AB
:102570000F900BBE0F900FBE0F901F9018951F92DB
:102580000F920FB60F9211240BB60F922F933F9319
:102590004F935F936F937F938F939F93AF93BF936B
:1025A000EF93FF9386EE93E00E944A04FF91EF9130
:1025B000BF91AF919F918F917F916F915F914F915B
:1025C0003F912F910F900BBE0F900FBE0F901F9059
:1025D00018951F920F920FB60F9211242F933F93CD
:1025E0008F939F93AF93BF938091830290918402C6
:1025F000A0918502B09186023091820223E0230FE0
:102600002D3758F50196A11DB11D209382028093AC
:10261000830290938402A0938502B09386028091F6
:10262000870290918802A0918902B0918A02019656
:10263000A11DB11D8093870290938802A093890207
:10264000B0938A02BF91AF919F918F913F912F914B
:102650000F900FBE0F901F90189526E8230F02963B
:10266000A11DB11DD2CF1F920F920FB60F92112450
:102670000BB60F922F933F934F935F936F937F937C
:102680008F939F93AF93BF93EF93FF9348E251E0F3
:1026900064E271E090E080E00E94DA06FF91EF9141
:1026A000BF91AF919F918F917F916F915F914F916A
:1026B0003F912F910F900BBE0F900FBE0F901F9068
:1026C00018951F920F920FB60F9211240BB60F920E
:1026D0002F933F934F935F936F937F938F939F932A
:1026E000AF93BF93EF93FF9348EA50E064EA70E042
:1026F00083E090E00E94DA06FF91EF91BF91AF91E5
:102700009F918F917F916F915F914F913F912F9109
:102710000F900BBE0F900FBE0F901F9018951F9239
:102720000F920FB60F9211240BB60F922F933F9377
:102730004F935F936F937F938F939F93AF93BF93C9
:10274000EF93FF9348E950E064E970E082E090E0A5
:102750000E94DA06FF91EF91BF91AF919F918F9107
:102760007F916F915F914F913F912F910F900BBE91
:102770000F900FBE0F901F9018951F920F920FB6DB
:102780000F9211240BB60F922F933F934F935F93A9
:102790006F937F938F939F93AF93BF93EF93FF9329
:1027A00048E850E064E870E081E090E00E94DA06DA
:1027B000FF91EF91BF91AF919F918F917F916F9119
:1027C0005F914F913F912F910F900BBE0F900FBED5
:1027D0000F901F901895CF92DF92EF92FF920F9378
:1027E0001F93E82FF92F05C0015011092109310964
:1027F00061F1908196239417B9F305C00150110936
:102800002109310911F1908196239413F7CFC12C3E
:10281000D12CE12CF12C0AC08FEFC81AD80AE80A93
:10282000F80A0C151D052E053F0579F080818623D9
:10283000841791F36C2D7D2D8E2D9F2D1F910F915F
:10284000FF90EF90DF90CF90089560E070E080E01F
:1028500090E01F910F91FF90EF90DF90CF9008953F
:102860001092AF021092AE0248EE53E060E070E0CA
:102870004093B0025093B1026093B2027093B302DE
:102880008CE292E09093AD028093AC0225ED30E0B3
:102890003093B9022093B80224ED30E03093BB02AC
:1028A0002093BA0220ED30E03093BD022093BC02A9
:1028B00021ED30E03093BF022093BE0222ED30E0E4
:1028C0003093C1022093C00226ED30E03093C30262
:1028D0002093C2021092C5021092C6021092C70243
:1028E0001092C80210924C0310924B0340934D0378
:1028F00050934E0360934F037093500390934A0399
:10290000809349032DEC30E0309356032093550318
:102910002CEC30E0309358032093570328EC30E040
:1029200030935A032093590329EC30E030935C0331
:1029300020935B032AEC30E030935E0320935D0329
:102940002EEC30E03093600320935F03109262031B
:102950001092630310926403109265031092E903CE
:102960001092E8034093EA035093EB036093EC0367
:102970007093ED039093E7038093E60385EC90E07A
:102980009093F3038093F20384EC90E09093F5032B
:102990008093F40380EC90E09093F7038093F60328
:1029A00081EC90E09093F9038093F80382EC90E03F
:1029B0009093FB038093FA0386EC90E09093FD03E1
:1029C0008093FC031092FF03109200041092010404
:1029D00010920204109273061092720610927406FE
:1029E00082E796E090935A068093590610925C060F
:1029F00010925B0610925E0610925D0610925F06C2
:102A000010926006109261061092620610926306A0
:102A10001092640610926506109266061092670680
:102A2000109268061092690610926A0610926C065F
:102A300010926B0610926E0610926D0610926F0641
:102A40001092710610927006809113058033C8F4BD
:102A500091E0980F909313058093560690E0FC0147
:102A6000EE0FFF1FE80FF91FED57FB4F88EB9BE0C0
:102A7000928381838FEF9FEF909355068093540646
:102A800008958FEF80935606F5CFCF93DF9300D054
:102A900000D0CDB7DEB7789484B5826084BD84B5AC
:102AA000816084BD85B5826085BD85B5816085BD49
:102AB00080916E00816080936E0010928100809101
:102AC0008100826080938100809181008160809389
:102AD0008100809180008160809380008091B100AE
:102AE00084608093B1008091B00081608093B000D9
:102AF000809191008260809391008091910081602B
:102B000080939100809190008160809390008091EB
:102B1000A10082608093A1008091A10081608093D8
:102B2000A1008091A00081608093A000809121018C
:102B30008260809321018091210181608093210135
:102B40008091200181608093200180917A008460CF
:102B500080937A0080917A00826080937A008091DD
:102B60007A00816080937A0080917A0080688093F7
:102B70007A001092C10086EE93E00E9478038CEAFE
:102B800092E00E94780380E092E090935C0680934C
:102B90005B060E94CE06DC01CB0188589341A10957
:102BA000B1098093630690936406A0936506B09381
:102BB000660680935F0690936006A0936106B093CB
:102BC00062068093670690936806A0936906B093A7
:102BD0006A060E94680883E492E00E942708E09158
:102BE0005906F0915A068CEA92E091838083E09135
:102BF0005906F0915A0612821092710610927006D0
:102C00000E94CE066B017C01809170069091710646
:102C1000019781F00E94CE066C197D098E099F09EB
:102C2000603576448105910528F489E596E00E9497
:102C3000E308EACF80917006909171060197B9F68A
:102C4000809154069091550697FF18C00E94CE06B9
:102C5000E4E1F5E044E556E024E1DF01322F1D9286
:102C60003A95E9F7608371838283938374964E1754
:102C70005F0799F7109255061092540680915406FA
:102C800090915506409774F4E4E1F5E090E080E01F
:102C900024813581232B09F411C301967496803168
:102CA0009105B1F780915606803308F054C061E079
:102CB0008CE00E946B0680915606282F30E0F901C7
:102CC000EE0FFF1FE20FF31FED57FB4F9081907C3B
:102CD0009C6090839EE89093570694E690935806E4
:102CE0002CE0622F0E94F81C829FB001112430E07A
:102CF00020E0AB01420F531FFA01EE0FFF1FE40F5C
:102D0000F51FED57FB4F908196FD17C02F5F3F4F8A
:102D10002C30310571F7813009F0E6C01092800047
:102D200082E0809381001092850010928400B19A15
:102D300080916F00826080936F00E09156068E2F25
:102D400090E0FC01EE0FFF1FE80FF91FED57FB4F5E
:102D500080818064808390E080E00E949F0361E036
:102D600088E10E946B0661E08DE20E946B0660E0E4
:102D70008EE20E946B0661E089E10E946B06CC2422
:102D8000CA94DC2C76017FE3272E7FE1372E89E57C
:102D900096E00E94E3080E94CE0669837A838B83C3
:102DA0009C8304E115E01E830D83AD81BE815396A3
:102DB0001C921E92529714968D919C911597892B77
:102DC000B9F14D905D906D907C90139769817A81F7
:102DD0008B819C81641975098609970919968D90D4
:102DE0009D90AD90BC901C97681579058A059B0550
:102DF000F8F0A50194010E94861BC501B4010E9450
:102E0000E81C640D751D861D971DED81FE81608394
:102E10007183828393838189882351F02585368548
:102E20002115310509F08CC021E030E0338B228B75
:102E30004D815E814C5E5F4F5E834D8384E596E0FD
:102E40008417950709F0B1CFD80152968D919C91C6
:102E50005397892B99F11496ED91FC91159718963B
:102E60008C911897882309F48BC016968D919C91AC
:102E70001995F80182899389029701F5809154068A
:102E800090915506892BD1F084819581892BB1F0E1
:102E9000D801E4E11D92EA95E9F70E94CE06D80137
:102EA0006D937D938D939C9313978091540690918D
:102EB0005506019790935506809354060C5E1F4F5C
:102EC000ED81FE81E017F10709F0BECF8091AB02E2
:102ED000811158C060E088E10E94F80589E10E94F4
:102EE00026060E94680553CF823061F4109290004C
:102EF00080939100109295001092940088BB80936B
:102F000071001BCF833069F41092A00082E080939F
:102F1000A1001092A5001092A40089BB80937200BA
:102F20000CCF81110ACF1092200182E08093210101
:102F300010922501109224018ABB80937300FDCE6C
:102F4000AD81BE811F968D919C91509782179307FA
:102F500008F06ECFE1E0F0E05396FC93EE935297C9
:102F6000019650969C938E931F978217930708F4AF
:102F70005FCF22E030E053963C932E93529758CF88
:102F8000199577CF61E088E10E94F80580912102D0
:102F9000893131F5EFEEF2E0149117FDA2CF61E037
:102FA00089E10E946B06112309F4F8C0123009F080
:102FB00009C18091B100887F83608093B10089EF5F
:102FC0008093B300C0929F02D092A002E092A1022F
:102FD000F092A2028091700082608093700081CF95
:102FE0008F3F09F07ECF89E180932102EFEEF2E07E
:102FF0001491812F1F3F09F474CF123009F46CC073
:1030000060F4112389F1113009F447C087FD69CFBD
:1030100061E089E10E946B06C9CF143009F49FC0BA
:1030200008F47DC0153091F7109220011092210113
:10303000809121018860809321018091210181602C
:1030400080932101E4E4F3E08491E82FF0E0EE0FB7
:10305000FF1FEB52FD4F85919491EAE8F3E08491D4
:1030600080938B0215E09BCF14BC15BC84B58260A5
:1030700084BD85B5816085BDE4E4F3E08491E82FEB
:10308000F0E0EE0FFF1FEB52FD4F85919491EAE8BF
:10309000F3E084918093920282CF1092800010928C
:1030A00081008091810088608093810080918100FF
:1030B000816080938100E4E4F3E08491E82FF0E004
:1030C000EE0FFF1FEB52FD4F85919491EAE8F3E07C
:1030D00084918093910263CF1092B0001092B1005E
:1030E0008091B00082608093B0008091B1008160D7
:1030F0008093B100E4E4F3E08491E82FF0E0EE0F78
:10310000FF1FEB52FD4F8591949190939002809315
:103110008F02EAE8F3E0849180938E0240CF109210
:1031200090001092910080919100886080939100AE
:1031300080919100816080939100E4E4F3E08491B8
:10314000E82FF0E0EE0FFF1FEB52FD4F85919491B9
:10315000EAE8F3E0849180938D0213E020CF10928F
:10316000A0001092A1008091A10088608093A1002E
:103170008091A10081608093A100E4E4F3E0849158
:10318000E82FF0E0EE0FFF1FEB52FD4F8591949179
:10319000EAE8F3E0849180938C0201CF85B5887FC3
:1031A000836085BD8CE787BDC092A702D092A8023C
:1031B000E092A902F092AA0280916E008260809350
:1031C0006E008FCE1130C1F480918100887F8160C4
:1031D000809381003092890020928800C092A302DF
:1031E000D092A402E092A502F092A60280916F0014
:1031F000826080936F0075CE1330C1F4809191008E
:10320000887F81608093910030929900209298008D
:10321000C0929B02D0929C02E0929D02F0929E028C
:10322000809171008260809371005BCE1430C1F494
:103230008091A100887F81608093A1003092A900D5
:103240002092A800C0929702D0929802E092990230
:10325000F0929A028091720082608093720041CE57
:103260001530C1F480912101887F81608093210114
:103270003092290120922801C0929302D0929402A8
:10328000E0929502F09296028091730082608093A2
:10329000730027CE123081F034F4112359F011302D
:1032A00009F01FCE97CF143049F20CF4ADCF153092
:1032B000F9F217CE8FE377CF8FE382CE24E1289FF8
:1032C000A001299F500D11244C5E5A4F5A83498307
:1032D00088EE93E0A0E0B0E0FA0181879287A387AF
:1032E000B4878BE091E195838483178216821086E0
:1032F0001686158681E0818B0E94CE06A981BA814F
:103300006D937D938D939C93139780915406909128
:10331000550601969093550680935406C3CC0F939F
:103320001F93CF93DF938230910510F482E090E0F9
:10333000E0917706F091780630E020E0B0E0A0E080
:10334000309799F42115310509F44AC0281B390B2F
:1033500024303105D8F58A819B816115710589F189
:10336000FB0193838283FE0111C040815181028160
:10337000138148175907E0F04817590799F4109737
:1033800061F012960C93129713961C933296CF010C
:10339000DF91CF911F910F910895009377061093BD
:1033A0007806F4CF2115310551F04217530738F054
:1033B000A901DB019A01BD01DF01F801C1CFEF01D5
:1033C000F9CF9093780680937706CDCFFE01E20F78
:1033D000F31F819391932250310939832883D7CFEA
:1033E0002091750630917606232B41F4209124021A
:1033F00030912502309376062093750620912202A3
:10340000309123022115310541F42DB73EB740918B
:10341000260250912702241B350BE0917506F0918E
:103420007606E217F307A0F42E1B3F0B2817390787
:1034300078F0AC014E5F5F4F2417350748F04E0F10
:103440005F1F5093760640937506819391939FCFAB
:10345000F0E0E0E09CCFCF93DF930097E9F0FC0130
:10346000329713821282A0917706B0917806ED010F
:1034700030E020E01097A1F420813181820F931F6A
:1034800020917506309176062817390709F061C03A
:10349000F0937606E0937506DF91CF910895EA01E7
:1034A000CE17DF07E8F54A815B819E014115510582
:1034B000B1F7E901FB83EA8349915991C40FD51F04
:1034C000EC17FD0761F4808191810296840F951FAE
:1034D000E90199838883828193819B838A83F0E0C9
:1034E000E0E012968D919C9113970097B9F52D917C
:1034F0003C911197CD010296820F931F2091750682
:10350000309176062817390739F6309751F5109221
:10351000780610927706B0937606A0937506BCCF16
:10352000D383C28340815181840F951FC817D90767
:1035300061F44E5F5F4F88819981480F591F518315
:1035400040838A819B81938382832115310509F011
:10355000B0CFF0937806E09377069ECFFD01DC01B3
:10356000C0CF13821282D7CFFC0188279927E89415
:1035700021912032E9F3293010F02E30C8F32B329C
:1035800041F02D3239F4689404C00E94221B820F4E
:10359000911D219120532A30C0F31EF490958195FE
:1035A0009F4F08951F93FC0199278827BC01E89439
:1035B00011911032E9F3193010F01E30C8F31B32AC
:1035C00051F01D3249F4689406C00E940D1B610F32
:1035D000711D811D911D119110531A30B0F33EF4ED
:1035E00090958095709561957F4F8F4F9F4F1F915C
:1035F0000895FB01DC0102C005900D92415050403E
:10360000D8F70895BB274A3031F4992322F4BDE25C
:10361000909581959F4F0C942B1B592F482F372F36
:10362000262F660F771F881F991F660F771F881F29
:10363000991F620F731F841F951F660F771F881FC6
:10364000991F08957AE0979F902D879F802D910D67
:1036500011240895BB27FB015527AA27880F991F1E
:10366000AA1FA41710F0A41B83955051B9F7A05DB1
:10367000AA3308F0A95DA193009779F7B111B1932E
:103680001192CB010C94441BDC01FC01672F71915A
:103690007723E1F7329704C07C916D937083629138
:1036A000AE17BF07C8F30895052E97FB1EF40094CC
:1036B0000E946B1B57FD07D00E94861B07FC03D09E
:1036C0004EF40C946B1B50954095309521953F4FCF
:1036D0004F4F5F4F089590958095709561957F4FFE
:1036E0008F4F9F4F08950E94A81BA59F900DB49FD8
:1036F000900DA49F800D911D11240895B7FF0C9487
:10370000731B0E94731B821B930B0895A1E21A2E58
:10371000AA1BBB1BFD010DC0AA1FBB1FEE1FFF1F75
:10372000A217B307E407F50720F0A21BB30BE40BC5
:10373000F50B661F771F881F991F1A9469F760950C
:103740007095809590959B01AC01BD01CF010895C6
:10375000A29FB001B39FC001A39F700D811D1124D2
:10376000911DB29F700D811D1124911D08950E941D
:10377000BE1B6894B1110C944D1C08950E94321C1C
:1037800088F09F5798F0B92F9927B751B0F0E1F022
:10379000660F771F881F991F1AF0BA95C9F714C0D2
:1037A000B13091F00E944C1CB1E008950C944C1C77
:1037B000672F782F8827B85F39F0B93FCCF386950B
:1037C00077956795B395D9F73EF490958095709568
:1037D00061957F4F8F4F9F4F0895E89409C097FBE5
:1037E0003EF490958095709561957F4F8F4F9F4FD8
:1037F0009923A9F0F92F96E9BB279395F69587951C
:1038000077956795B795F111F8CFFAF4BB0F11F4DE
:1038100060FF1BC06F5F7F4F8F4F9F4F16C0882385
:1038200011F096E911C0772321F09EE8872F762FBB
:1038300005C0662371F096E8862F70E060E02AF0FC
:103840009A95660F771F881FDAF7880F96958795E8
:1038500097F9089557FD9058440F551F59F05F3F51
:1038600071F04795880F97FB991F61F09F3F79F0A2
:1038700087950895121613061406551FF2CF469524
:10388000F1DF08C0161617061806991FF1CF8695A6
:103890007105610508940895E894BB27662777278A
:1038A000CB0197F908950E94661C0C94D71C0E94C6
:1038B000C91C38F00E94D01C20F0952311F00C9404
:1038C000C01C0C94C61C11240C944D1C0E942A1C74
:1038D00070F3959FC1F3950F50E0551F629FF00163
:1038E000729FBB27F00DB11D639FAA27F00DB11D7C
:1038F000AA1F649F6627B00DA11D661F829F222705
:10390000B00DA11D621F739FB00DA11D621F839F8B
:10391000A00D611D221F749F3327A00D611D231F61
:10392000849F600D211D822F762F6A2F11249F57AF
:1039300050409AF0F1F088234AF0EE0FFF1FBB1FB2
:10394000661F771F881F91505040A9F79E3F510571
:1039500080F00C94C01C0C944D1C5F3FE4F3983E27
:10396000D4F3869577956795B795F795E7959F5F1B
:10397000C1F7FE2B880F911D9695879597F90895AD
:1039800097F99F6780E870E060E008959FEF80EC12
:10399000089500240A9416161706180609060895B5
:1039A00000240A9412161306140605060895092E1B
:1039B0000394000C11F4882352F0BB0F40F4BF2B8A
:1039C00011F460FF04C06F5F7F4F8F4F9F4F0895CA
:1039D000DB018F939F930E94731BBF91AF91A29FB6
:1039E000800D911DA39F900DB29F900D11240895FD
:1039F000991B79E004C0991F961708F0961B881F41
:103A00007A95C9F780950895EE0FFF1F881F8BBF29
:103A10000790F691E02D1994FB01DC0102C00190A2
:103A20000D9241505040D8F70895FB01DC018D9173
:103A3000019080190110D9F3990B0895FB01DC0165
:103A40004150504048F001900D920020C9F701C04C
:103A50001D9241505040E0F70895F894FFCF414B3C
:103A6000557979577A665F654F494135785F70635C
:103A70007765385731657A415F31696E6D6700FF50
:103A800000007906800000000000E0041D046304CB
:103A900048059404720486040D0A00696E006F756F
:103AA000740070776D007075006477006177007442
:103AB0006D706C00544D504C6F353173493161312C
:103AC000007677004E6F20546872656174204465FB
:083AD000746563746564210054
:10E000000D9489F10D94B2F10D94B2F10D94B2F129
:10E010000D94B2F10D94B2F10D94B2F10D94B2F1F0
:10E020000D94B2F10D94B2F10D94B2F10D94B2F1E0
:10E030000D94B2F10D94B2F10D94B2F10D94B2F1D0
:10E040000D94B2F10D94B2F10D94B2F10D94B2F1C0
:10E050000D94B2F10D94B2F10D94B2F10D94B2F1B0
:10E060000D94B2F10D94B2F10D94B2F10D94B2F1A0
:10E070000D94B2F10D94B2F10D94B2F10D94B2F190
:10E080000D94B2F10D94B2F10D94B2F10D94B2F180
:10E090000D94B2F10D94B2F10D94B2F10D94B2F170
:10E0A0000D94B2F10D94B2F10D94B2F10D94B2F160
:10E0B0000D94B2F10D94B2F10D94B2F10D94B2F150
:10E0C0000D94B2F10D94B2F10D94B2F10D94B2F140
:10E0D0000D94B2F10D94B2F10D94B2F10D94B2F130
:10E0E0000D94B2F141546D656761323536300041AF
:10E0F000726475696E6F206578706C6F72657220DE
:10E1000073746B3530305632206279204D4C530099
:10E11000426F6F746C6F616465723E004875683F52
:10E1200000436F6D70696C6564206F6E203D200048
:10E130004350552054797065202020203D20005FF9
:10E140005F4156525F415243485F5F3D2000415658
:10E1500052204C696243205665723D20004743437C
:10E160002056657273696F6E203D20004350552024
:10E1700049442020202020203D20004C6F7720663D
:10E18000757365202020203D20004869676820665F
:10E190007573652020203D200045787420667573D6
:10E1A00065202020203D20004C6F636B2066757336
:10E1B000652020203D20004D617220203720323024
:10E1C000313300312E362E3800342E332E350056A2
:10E1D00023202020414444522020206F7020636F70
:10E1E00064652020202020696E73747275637469E1
:10E1F0006F6E2061646472202020496E74657272B3
:10E20000757074006E6F20766563746F7200726A49
:10E210006D702020006A6D70200057686174207056
:10E220006F72743A00506F7274206E6F7420737541
:10E2300070706F72746564004D7573742062652030
:10E2400061206C6574746572002000577269747483
:10E25000696E672045450052656164696E672045B7
:10E26000450045452065727220636E743D00504F35
:10E27000525400303D5A65726F2061646472003FF1
:10E280003D43505520737461747300403D454550C3
:10E29000524F4D207465737400423D426C696E6B41
:10E2A000204C454400453D44756D70204545505215
:10E2B0004F4D00463D44756D7020464C415348001B
:10E2C000483D48656C70004C3D4C69737420492F83
:10E2D0004F20506F72747300513D51756974005234
:10E2E0003D44756D702052414D00563D73686F7707
:10E2F00020696E7465727275707420566563746FF0
:10E30000727300593D506F727420626C696E6B00BD
:10E310002A0011241FBECFEFD1E2DEBFCDBF01E046
:10E320000CBF12E0A0E0B2E0EEE1FDEF03E00BBFB6
:10E3300002C007900D92A030B107D9F712E0A0E01B
:10E34000B2E001C01D92AE30B107E1F70F9460F367
:10E350000D948DFE01E20EBF0FEF0DBF11241FBE05
:10E360000D9460F30D9400F020E030E040ED57E0B4
:10E3700005C0FA013197F1F72F5F3F4F2817390792
:10E38000C0F308959C01260F311DC901A0E0B0E043
:10E390002F5F3F4FABBFFC018791882361F08093D3
:10E3A000C6008091C00086FFFCCF8091C0008064D1
:10E3B0008093C000EACF08958DE08093C6008091DD
:10E3C000C00086FFFCCF8091C00080648093C000B5
:10E3D0008AE08093C6008091C00086FFFCCF8091C8
:10E3E000C00080648093C00008950F94C2F10F9420
:10E3F000DCF10895FC019081992359F09093C600B7
:10E400008091C00086FFFCCF8091C0008064809323
:10E41000C0003196992379F70895282F982F929567
:10E420009F70892F805D8A3308F0895F8093C600D2
:10E430008091C00086FFFCCF8091C00080648093F3
:10E44000C000822F8F70982F905D9A3308F0995FEB
:10E450009093C6008091C00086FFFCCF8091C000E1
:10E4600080648093C00008959C01FB01853691056E
:10E470001CF46330710594F0C90164E670E00F94F8
:10E480002EFE605D7F4F6093C6008091C00086FFC6
:10E49000FCCF8091C00080648093C0002B30310598
:10E4A00014F43297B4F0C90164E670E00F942EFEC4
:10E4B0006AE070E00F942EFE605D7F4F6093C600AF
:10E4C0008091C00086FFFCCF8091C0008064809363
:10E4D000C000C9016AE070E00F942EFEC0968093E0
:10E4E000C6008091C00086FFFCCF8091C000806490
:10E4F0008093C00008951F93182F8EE692EE60E07F
:10E500000F94C2F11093C6008091C00086FFFCCF2B
:10E510008091C00080648093C0000F94DCF11F9153
:10E5200008952F923F924F925F926F927F928F92B7
:10E530009F92AF92BF92CF92DF92EF92FF920F9392
:10E540001F93DF93CF93CDB7DEB762970FB6F894E2
:10E55000DEBF0FBECDBF382E622ECA01DB015C01CB
:10E560006D01772420E2222E2E010894411C511CBB
:10E570008BC081E0A81680E0B80681E0C80680E084
:10E58000D80628F0C601AA27BB270F940DF2BB2797
:10E59000AD2D9C2D8B2D0F940DF28A2D0F940DF225
:10E5A0002092C6008091C00086FFFCCF8091C00001
:10E5B00080648093C0009DE29093C6008091C0006B
:10E5C00086FFFCCF8091C00080648093C0002092C1
:10E5D000C6008091C00086FFFCCF8091C00080649F
:10E5E0008093C00019828601750188249924A1E0D6
:10E5F0003A1651F03A1620F0B2E03B1661F409C029
:10E600000BBFF701779007C0C7010F9477FE782EF4
:10E6100002C0F7017080872D0F940DF22092C60082
:10E620008091C00086FFFCCF8091C0008064809301
:10E63000C000872D8052F401EF70F0708F3520F408
:10E64000E40DF51D708204C0E40DF51D8EE280839B
:10E650000894E11CF11C011D111D0894811C911CE2
:10E6600090E18916910409F0C2CF80E190E0A0E02A
:10E67000B0E0A80EB91ECA1EDB1E198AC2010F9493
:10E68000FAF10F94DCF16A94662009F072CF629679
:10E690000FB6F894DEBF0FBECDBFCF91DF911F91B3
:10E6A0000F91FF90EF90DF90CF90BF90AF909F9031
:10E6B0008F907F906F905F904F903F902F90089534
:10E6C0002F923F924F925F926F927F928F929F9282
:10E6D000AF92BF92CF92DF92EF92FF920F931F9370
:10E6E000DF93CF93CDB7DEB7CD53D1400FB6F894BB
:10E6F000DEBF0FBECDBF01E20EBF0FEF0DBF94B75F
:10E70000F894A89514BE80916000886180936000A1
:10E7100010926000789493FF05C0E0910002F091A0
:10E7200001021995279A2F9A8091C00082608093E8
:10E73000C00080E18093C40088E18093C1000000A4
:10E74000EE24FF24870144E0A42EB12CCC24DD2448
:10E7500024C0C5010197F1F70894E11CF11C011DCB
:10E76000111D21E2E2162EE4F20620E0020720E06D
:10E77000120718F031E0C32ED12CC801B70127ECE5
:10E780003BE140E050E00F9441FE611571058105C9
:10E79000910519F485B1805885B98091C00087FD35
:10E7A00003C0C114D104A9F2A6014F5F5F4FC25E3E
:10E7B000DE4F59834883CE51D140C25EDE4F8881FF
:10E7C0009981CE51D140019711F00D9410FEC05D9A
:10E7D000DE4F19821882C053D14060E0C15DDE4F28
:10E7E0001882CF52D14088249924C35DDE4F19820C
:10E7F0001882CD52D140C05EDE4F188219821A8233
:10E800001B82C052D140CE5CDE4F188219821A8220
:10E810001B82C253D140EE24FF2487010BBFF701B6
:10E8200007911691C45CDE4F19830883CC53D14005
:10E830000D940BFEC25EDE4F28813981CE51D1404E
:10E840002130310509F52091C600C25EDE4F1982E4
:10E850001882CE51D14022C02F5F3F4F4F4F5F4FA4
:10E86000213082E138078AE7480780E0580780F0C6
:10E87000C45CDE4FE881F981CC53D140EF5FFF4F9C
:10E8800019F0EE27FF27099420E030E040E050E047
:10E890008091C00087FFE0CF2091C600C35DDE4FAE
:10E8A00048815981CD52D1404F5F5F4FC35DDE4FEC
:10E8B00059834883CD52D140213209F063C64A3092
:10E8C000510508F05FC60894811C911C53E0851621
:10E8D000910409F059C600E010E018C081E280936D
:10E8E000C6008091C00086FFFCCF8091C00080648C
:10E8F0008093C0002F5F3F4F2931310579F70F9486
:10E90000DCF10F5F1F4F0530110519F020E030E0FA
:10E91000E5CF10920A0210920B0210920C02109294
:10E920000D02109206021092070210920802109235
:10E930000902109202021092030210920402109235
:10E9400005028FEE90EE60E00F94F5F180E191EE1C
:10E9500060E00F94C2F18091C00087FFFCCF9091DE
:10E96000C600903608F09F759032B8F09093C600BC
:10E970008091C00086FFFCCF8091C00080648093AE
:10E98000C000A0E2A093C6008091C00086FFFCCF2B
:10E990008091C00080648093C000983409F4D7C18E
:10E9A0009934B8F4923409F459C1933458F490333B
:10E9B00019F1903308F4E3C59F33A1F1903409F0C5
:10E9C000DEC5BDC0953409F470C1963409F0D7C5D1
:10E9D00098C1923509F42BC2933538F49C3409F46C
:10E9E000F5C1913509F0CBC518C2963509F445C279
:10E9F000993509F0C4C567C483E792EE62E00F94CD
:10EA0000F5F110920602109207021092080210927D
:10EA1000090210920A0210920B0210920C0210923C
:10EA20000D0213C18FE792EE62E00F94F5F18FEEC5
:10EA300090EE60E00F94F5F181E291EE60E00F94CA
:10EA4000C2F187EB91EE60E00F94F5F180E391EE77
:10EA500060E00F94C2F184EE90EE60E00F94F5F167
:10EA60008FE391EE60E00F94C2F186E090E061E008
:10EA700070E00F9434F20F94DCF18DE591EE60E0DC
:10EA80000F94C2F189EC91EE60E00F94F5F18EE401
:10EA900091EE60E00F94C2F183EC91EE60E00F9490
:10EAA000F5F18CE691EE60E00F94C2F18EE10F94E7
:10EAB0000DF288E90F940DF281E00F940DF20F949E
:10EAC000DCF18BE791EE60E00F94C2F119E0E0E039
:10EAD000F0E010935700E4918E2F0F940DF20F94F5
:10EAE000DCF18AE891EE60E00F94C2F1E3E0F0E03F
:10EAF00010935700E4918E2F0F940DF20F94DCF1D8
:10EB000089E991EE60E00F94C2F1E2E0F0E0109349
:10EB10005700E4918E2F0F940DF20F94DCF188EAE8
:10EB200091EE60E00F94C2F1E1E0F0E01093570045
:10EB30001491812F0F940DF20F94DCF107CF8BE825
:10EB400092EE62E00F94F5F18BE492EE60E00F94A8
:10EB5000F5F10F94DCF100E010E019C0C8016F2D51
:10EB60000F947FFEFF2031F489E492EE60E00F9471
:10EB7000C2F10BC0F092C6008091C00086FFFCCFAE
:10EB80008091C00080648093C0000F5F1F4FC80158
:10EB900081519F41A0E0B0E0ABBFFC01F790BAE229
:10EBA000FB1621F0E2E000301E07C1F60F94DCF105
:10EBB0000F94DCF187E592EE60E00F94F5F10F948D
:10EBC000DCF1CC24DD2400E010E01EC0C8010F946D
:10EBD00077FEF82E882331F489E492EE60E00F94FA
:10EBE000C2F10BC08093C6008091C00086FFFCCFAD
:10EBF0008091C00080648093C000FE1419F00894D6
:10EC0000C11CD11C0F5F1F4FC80181519F41A0E063
:10EC1000B0E0ABBFFC01E790FAE2EF1621F022E092
:10EC20000030120799F60F94DCF10F94DCF182E6C4
:10EC300092EE60E00F94C2F1C60161E070E00F94C3
:10EC400034F20F94DCF10F94DCF110920202109276
:10EC50000302109204021092050278CE89E992EE26
:10EC600062E00F94F5F1279A2F9A16C02F9880E052
:10EC700090E0E0EDF7E03197F1F7019684369105E9
:10EC8000C1F72F9A80E090E0E0EDF7E03197F1F7DF
:10EC9000019684369105C1F78091C00087FFE6CFC9
:10ECA0008091C00087FFFCCF64C485EA92EE62E0E9
:10ECB0000F94F5F140910202509103026091040219
:10ECC0007091050281E020E10F9491F2809102029F
:10ECD00090910302A0910402B091050280509F4FD1
:10ECE000AF4FBF4F8093020290930302A0930402A0
:10ECF000B093050280509041A040B04008F426CE69
:10ED0000A4CF83EB92EE62E00F94F5F140910602FE
:10ED100050910702609108027091090280E020E1A1
:10ED20000F9491F28091060290910702A09108023F
:10ED3000B091090280509F4FAF4FBF4F80930602A2
:10ED400090930702A0930802B0930902FFCD80ECD4
:10ED500092EE62E00F94F5F183E792EE60E00F949B
:10ED6000F5F18FE792EE60E00F94F5F18BE892EE0B
:10ED700060E00F94F5F189E992EE60E00F94F5F10F
:10ED800085EA92EE60E00F94F5F183EB92EE60E09D
:10ED90000F94F5F180EC92EE60E00F94F5F187ECC2
:10EDA00092EE60E00F94F5F188ED92EE60E00F9442
:10EDB000F5F18FED92EE60E00F94F5F18AEE92EEB0
:10EDC00060E00F94F5F183E093EEBDCD87EC92EE19
:10EDD00062E00F94F5F181E40F947BF282E40F94EA
:10EDE0007BF283E40F947BF284E40F947BF285E45E
:10EDF0000F947BF286E40F947BF287E40F947BF20E
:10EE000088E40F947BF28AE40F947BF28BE40F94F6
:10EE10007BF28CE40F947BF299CD88ED92EE62E068
:10EE20000F94F5F1772473948824992409C48FED05
:10EE300092EE62E00F94F5F140910A0250910B02BC
:10EE400060910C0270910D0282E020E10F9491F22A
:10EE500080910A0290910B02A0910C02B0910D02D8
:10EE600080509F4FAF4FBF4F80930A0290930B0289
:10EE7000A0930C02B0930D0269CD8AEE92EE62E08F
:10EE80000F94F5F184EE90EE60E00F94F5F18FECC5
:10EE900091EE60E00F94F5F1662477244301CC5D98
:10EEA000DE4F19821882C452D140D401C301B695F5
:10EEB000A79597958795CA5DDE4F88839983AA8326
:10EEC000BB83C652D140CC5DDE4FA881B981C4520C
:10EED000D1401196CC5DDE4FB983A883C452D14096
:10EEE000CD0162E070E00F9434F2B0E2B093C6005E
:10EEF0008091C00086FFFCCF8091C0008064809329
:10EF0000C000EDE2E093C6008091C00086FFFCCF18
:10EF10008091C00080648093C000F0E2F093C6004E
:10EF20008091C00086FFFCCF8091C00080648093F8
:10EF3000C000CA5DDE4FE880F9800A811B81C6529D
:10EF4000D140BB27A12F902F8F2D0F940DF2CA5DBA
:10EF5000DE4F8881C652D1400F940DF2B0E2FB2EF5
:10EF6000F092C6008091C00086FFFCCF8091C00067
:10EF700080648093C0000DE30093C6008091C000C0
:10EF800086FFFCCF8091C00080648093C00010E2B7
:10EF90001093C6008091C00086FFFCCF8091C00016
:10EFA00080648093C0008BBEF3012791C65DDE4F65
:10EFB0002883CA52D140A22EBB24CC24DD2408943D
:10EFC000611C711C811C911C8BBEF3018791282E42
:10EFD0003324442455240894611C711C811C911C09
:10EFE0008BBEF3013791C55DDE4F3883CB52D140E4
:10EFF0000894611C711C811C911C8BBEF30147910C
:10F00000C45DDE4F4883CC52D140ADEFEA2EAFEF66
:10F01000FA2EAFEF0A2FAFEF1A2F6E0C7F1C801E57
:10F02000911E142D032DF22CEE24EA0CFB1C0C1D5A
:10F030001D1D0F940DF220E22093C6008091C000A8
:10F0400086FFFCCF8091C00080648093C000C65DC5
:10F05000DE4F8881CA52D1400F940DF230E23093D6
:10F06000C6008091C00086FFFCCF8091C000806404
:10F070008093C000C45DDE4F8881CC52D1400F9494
:10F080000DF240E24093C6008091C00086FFFCCFA5
:10F090008091C00080648093C000C55DDE4F888190
:10F0A000CB52D1400F940DF250E25093C6008091A4
:10F0B000C00086FFFCCF8091C00080648093C000B8
:10F0C0008FEFE8168FEFF80680E0080780E018075A
:10F0D00031F484E092EE60E00F94C2F1DFC0D80119
:10F0E000C7018070907CA070B0708050904CA040A0
:10F0F000B040D1F52FEF3FE340E050E0E222F322B1
:10F1000004231523CA5DDE4FA880B980CA80DB8046
:10F11000C652D140AE0CBF1CC01ED11EAA0CBB1CD7
:10F12000CC1CDD1C8EE092EE60E00F94C2F1BB2798
:10F13000A12F902F8F2D0F940DF28E2D0F940DF285
:10F1400030E23093C6008091C00086FFFCCF8091F2
:10F15000C00080648093C0004EE34093C60080915D
:10F16000C00086FFFCCF87C08EE09EEFA0E0B0E03D
:10F17000E822F9220A231B239CE0E91694E9F90608
:10F1800090E0090790E0190709F088C0C45DDE4FE0
:10F19000A881CC52D140EA2EFF2400E010E0102FCD
:10F1A0000F2DFE2CEE24C55DDE4FB881CB52D14031
:10F1B000EB0EF11C011D111DD601C501817090706F
:10F1C000A070B070DC0199278827E80EF91E0A1F8D
:10F1D0001B1F20EF30E040E050E0A222B322C42207
:10F1E000D52241E1AA0CBB1CCC1CDD1C4A95D1F7F1
:10F1F000EA0CFB1C0C1D1D1D81E090E0A0E0B0E0BE
:10F20000282239224A225B2235E1220C331C441C7D
:10F21000551C3A95D1F7E20CF31C041D151D57013E
:10F220006801AA0CBB1CCC1CDD1C85E192EE60E0E1
:10F230000F94C2F1C801AA27BB270F940DF2BB2778
:10F24000A12F902F8F2D0F940DF28E2D0F940DF274
:10F2500090E29093C6008091C00086FFFCCF809121
:10F26000C00080648093C000AEE3A093C60080918C
:10F27000C00086FFFCCF8091C00080648093C000F6
:10F28000C601AA27BB270F940DF2BB27AD2D9C2DDD
:10F290008B2D0F940DF28A2D0F940DF20F94DCF14B
:10F2A000CC5DDE4FE881F981C452D140F99709F471
:10F2B0004DCBF4E0EF2EF12C012D112D6E0C7F1CA7
:10F2C000801E911EF2CD83E093EE62E00F94F5F183
:10F2D0008AE192EE60E00F94C2F18091C00087FF56
:10F2E000FCCF1091C6001F751093C6008091C0001E
:10F2F00086FFFCCF8091C00080648093C0000F9493
:10F30000DCF1812F81548A3108F036C1163409F4BA
:10F3100095C0173490F4133409F44EC0143430F40B
:10F320001134F1F0123409F01DC130C0143409F465
:10F3300059C0153409F016C16BC01A3409F4C4C0A1
:10F340001B3438F4173409F48FC0183409F00AC19B
:10F35000A1C01B3409F4D2C01C3409F003C1E8C0B9
:10F360008FEF81B90DC082B1809582B980E090E0C5
:10F37000E0EDF7E03197F1F70196883C9105C1F790
:10F380008091C00087FFEFCF12B8EFC08FEF84B934
:10F390000DC085B1809585B980E090E0E0EDF7E0A3
:10F3A0003197F1F70196883C9105C1F78091C00033
:10F3B00087FFEFCF15B8D9C08FEF87B90DC088B1DF
:10F3C000809588B980E090E0E0EDF7E03197F1F7C3
:10F3D0000196883C9105C1F78091C00087FFEFCF6F
:10F3E00018B8C3C08FEF8AB90DC08BB180958BB9A7
:10F3F00080E090E0E0EDF7E03197F1F70196883C8E
:10F400009105C1F78091C00087FFEFCF1BB8ADC059
:10F410008FEF8DB90DC08EB180958EB980E090E0F0
:10F42000E0EDF7E03197F1F70196883C9105C1F7DF
:10F430008091C00087FFEFCF1EB897C08FEF80BBD1
:10F440000DC081B3809581BB80E090E0E0EDF7E0F6
:10F450003197F1F70196883C9105C1F78091C00082
:10F4600087FFEFCF11BA81C08FEF83BB0DC084B38C
:10F47000809584BB80E090E0E0EDF7E03197F1F714
:10F480000196883C9105C1F78091C00087FFEFCFBE
:10F4900014BA6BC08FEF809301010FC080910201FD
:10F4A00080958093020180E090E0E0EDF7E03197F5
:10F4B000F1F70196883C9105C1F78091C00087FF64
:10F4C000EDCF1092020151C08FEF809304010FC065
:10F4D0008091050180958093050180E090E0E0ED4A
:10F4E000F7E03197F1F70196883C9105C1F78091DB
:10F4F000C00087FFEDCF1092050137C08FEF8093DA
:10F5000007010FC08091080180958093080180E079
:10F5100090E0E0EDF7E03197F1F70196883C910536
:10F52000C1F78091C00087FFEDCF109208011DC088
:10F530008FEF80930A010FC080910B01809580931B
:10F540000B0180E090E0E0EDF7E03197F1F70196F4
:10F55000883C9105C1F78091C00087FFEDCF1092E4
:10F560000B0103C085E292EEEEC98091C00087FFD7
:10F57000FCCF8091C600EAC988E392EEE4C98CE131
:10F5800091EEE1C988249924933011F1943028F444
:10F59000913089F09230B8F408C0953061F195301F
:10F5A000F0F0963009F048C043C02B3109F042C951
:10F5B00091E06BE13FC96227C15DDE4F2883CF52E6
:10F5C000D14092E037C9B22FA0E0622793E032C960
:10F5D000822F90E0A82BB92B622794E02BC92E3004
:10F5E00009F039C3622795E0C05DDE4F19821882A9
:10F5F000C053D1401FC9E1E0F0E0EC0FFD1FC05D3A
:10F60000DE4F08811981C053D140E00FF11F2083E4
:10F610000F5F1F4FC05DDE4F19830883C053D14079
:10F6200062270A171B0709F005C9D80196E002C92D
:10F63000261709F010C303C0973009F0FBC87724E0
:10F640009981933109F412C19431C8F4963009F4C8
:10F65000D8C0973050F4923009F406C1933009F4C1
:10F660006DC0913009F059C253C0913109F477C08F
:10F67000923108F0BBC0903109F04FC2F5C098310B
:10F6800009F487C0993150F4953109F4EFC09531F0
:10F6900008F4C6C1963109F040C2C2C19A3109F4DA
:10F6A0006CC09A3108F491C09B3109F45BC09D3164
:10F6B00009F033C29D81903359F48F81882311F46E
:10F6C0009EE11CC0813011F091E018C098E916C08D
:10F6D000892F807591F0903539F4E0E0F0E089E011
:10F6E0008093570094910AC0983539F4E3E0F0E034
:10F6F00089E080935700949101C090E01A821B82A8
:10F700008D818C831D829E831F8227E030E009C299
:10F710001A8288E08B8381E48C8386E58D8382E581
:10F720008E8389E48F8383E5888780E589878FE5E9
:10F730008A8782E38B872BE030E0F3C18A818139AD
:10F7400041F0823941F0803911F48FE005C080E04A
:10F7500003C082E001C08AE01A828B8344C0772410
:10F76000739482C08D81882311F48EE12CC0813086
:10F7700011F081E028C088E926C01A82E1E0F0E0BB
:10F7800089E08093570084918B831C8224E030E0D1
:10F79000C8C18B81803589F48C81883039F4E2E0EE
:10F7A000F0E089E08093570084910DC0E0E0F0E044
:10F7B00089E080935700849106C0E3E0F0E089E09F
:10F7C0008093570084911A82DFCF8D81836C99E0FA
:10F7D000E1E0F0E0082E90935700E89507B600FCB2
:10F7E000FDCF1A821B8223E030E09BC180EC8A832C
:10F7F000CE5CDE4F188219821A821B82C253D1401E
:10F800008EC18A8190E0A0E0B0E0582F44273327D2
:10F8100022278B8190E0A0E0B0E0DC0199278827C7
:10F82000282B392B4A2B5B2B8D8190E0A0E0B0E098
:10F83000282B392B4A2B5B2B8C8190E0A0E0B0E089
:10F84000BA2FA92F982F8827282B392B4A2B5B2BCF
:10F85000220F331F441F551FC05EDE4F288339839C
:10F860004A835B83C052D1401A8259C13A81C95C34
:10F87000DE4F3883C753D140CA5CDE4F1882C6536F
:10F88000D1408B81C82EDD24CA5CDE4F488159816E
:10F89000C653D140C42AD52A933109F082C0CE5C28
:10F8A000DE4F88819981AA81BB81C253D1408050AB
:10F8B000904CA340B04030F583E0CE5CDE4FE88052
:10F8C000F9800A811B81C253D140F70100935B008C
:10F8D00080935700E89507B600FCFDCFCE5CDE4F65
:10F8E000088119812A813B81C253D14000501F4FAA
:10F8F0002F4F3F4FCE5CDE4F088319832A833B8313
:10F90000C253D140C05EDE4F488159816A817B81FC
:10F91000C052D140DE011B9631E08C9111962C91A2
:10F9200011971296C75CDE4F2883C953D140C85C3B
:10F93000DE4F1882C853D14090E0C85CDE4FE881AA
:10F94000F981C853D1408E2B9F2B0C01FA01609393
:10F950005B0030935700E89511244E5F5F4F6F4F67
:10F960007F4F0EEFE02E0FEFF02ECE0CDF1CC114F8
:10F97000D10499F685E0C05EDE4F088119812A81A5
:10F980003B81C052D140F80120935B008093570027
:10F99000E89507B600FCFDCF81E180935700E8951C
:10F9A00035C0C05EDE4F88819981AA81BB81C0527B
:10F9B000D140B695A795979587957C018601ABE0D8
:10F9C000AA2EB12CAC0EBD1E0BC0D5016D915D01F0
:10F9D000C7010F947FFE0894E11CF11C01501040F8
:10F9E0000115110591F7A60160E070E0440F551F65
:10F9F000661F771FC05EDE4FE880F9800A811B8199
:10FA0000C052D1404E0D5F1D601F711F1A82C05E33
:10FA1000DE4F488359836A837B83C052D1407FC0C5
:10FA2000FA80C55CDE4FF882CB53D140C65CDE4F16
:10FA30001882CA53D1408B81C82EDD24C65CDE4FAC
:10FA400008811981CA53D140C02AD12A1A828981DA
:10FA5000BE016D5F7F4F843121F59601C05EDE4FA0
:10FA6000E880F9800A811B81C052D1400BBFF701A9
:10FA700087919691DB018C9311969C936E5F7F4FDB
:10FA8000D801C7010296A11DB11DC05EDE4F88835B
:10FA90009983AA83BB83C052D14022503040F1F6F3
:10FAA00036C0C05EDE4F288139814A815B81C052F9
:10FAB000D1400894C108D108760100E010E0089414
:10FAC000C11CD11C0894E11CF11C011D111DE20E8A
:10FAD000F31E041F151F21BDBB27A52F942F832FB5
:10FAE00082BD2F5F3F4F4F4F5F4FF89A80B5DB01CC
:10FAF0008D93BD012E153F054007510761F7C05E8C
:10FB0000DE4F288339834A835B83C052D1409601FC
:10FB10002D5F3F4FFB01108204C080EC8A8322E0FE
:10FB200030E08BE18093C6008091C00086FFFCCF5F
:10FB30008091C00080648093C000C15DDE4FF88179
:10FB4000CF52D140F093C6008091C00086FFFCCF19
:10FB50008091C00080648093C000432F3093C60022
:10FB60008091C00086FFFCCF8091C00080648093AC
:10FB7000C000922F2093C6008091C00086FFFCCF6A
:10FB80008091C00080648093C0008EE08093C600A6
:10FB90008091C00086FFFCCF8091C000806480937C
:10FBA000C00065E1C15DDE4FE880CF52D1406E25D7
:10FBB00069276427FE01319610C090819093C6009A
:10FBC0008091C00086FFFCCF31968091C000806498
:10FBD0008093C0006927215030402115310569F715
:10FBE0006093C6008091C00086FFFCCF8091C0006A
:10FBF00080648093C00085B1805885B9772081F4F6
:10FC0000C15DDE4F0881CF52D1400F5FC15DDE4F35
:10FC10000883CF52D14090E0A0E0B0E00D941AF4F8
:10FC200027982F9880E090E020ED37E0F901319798
:10FC3000F1F7019684369105C9F700008091C00064
:10FC40008D7F8093C00081E180935700E895EE2777
:10FC5000FF270994FFCF90E00D941AF497FB092E2B
:10FC600007260AD077FD04D02ED006D000201AF443
:10FC7000709561957F4F0895F6F7909581959F4F08
:10FC80000895A1E21A2EAA1BBB1BFD010DC0AA1FDD
:10FC9000BB1FEE1FFF1FA217B307E407F50720F0F5
:10FCA000A21BB30BE40BF50B661F771F881F991F70
:10FCB0001A9469F760957095809590959B01AC01B9
:10FCC000BD01CF010895AA1BBB1B51E107C0AA1FAC
:10FCD000BB1FA617B70710F0A61BB70B881F991FED
:10FCE0005A95A9F780959095BC01CD010895F99991
:10FCF000FECF92BD81BDF89A992780B50895262F31
:10FD0000F999FECF1FBA92BD81BD20BD0FB6F89400
:0EFD1000FA9AF99A0FBE01960895F894FFCF63
:00000001FF
